{
  "transactions": [
    {
      "hash": "0x02ed73451c703cd28a97ad9ffc4592fc563ff3463622fbab3ad0af5f643ef9ba",
      "transactionType": "CALL",
      "contractName": "PoolManager",
      "contractAddress": "0xe03a1074c86cfedd5c142c4f04f1a1536e203543",
      "function": "initialize((address,address,uint24,int24,address),uint160)",
      "arguments": [
        "(0x0003897f666B36bf31Aa48BEEA2A57B16e60448b, 0xC9D872b821A6552a37F6944F66Fc3E3BA55916F0, 3000, 60, 0x80B884a77Cb6167B884d3419019Df790E65440C0)",
        "79228162514264337593543950336"
      ],
      "transaction": {
        "from": "0x026ba0aa63686278c3b3b3b9c43bedd8421e36cd",
        "to": "0xe03a1074c86cfedd5c142c4f04f1a1536e203543",
        "gas": "0x1277b",
        "value": "0x0",
        "input": "0x6276cbbe0000000000000000000000000003897f666b36bf31aa48beea2a57b16e60448b000000000000000000000000c9d872b821a6552a37f6944f66fc3e3ba55916f00000000000000000000000000000000000000000000000000000000000000bb8000000000000000000000000000000000000000000000000000000000000003c00000000000000000000000080b884a77cb6167b884d3419019df790e65440c00000000000000000000000000000000000000001000000000000000000000000",
        "nonce": "0x243",
        "chainId": "0xaa36a7"
      },
      "additionalContracts": [],
      "isFixedGasLimit": false
    }
  ],
  "receipts": [
    {
      "status": "0x1",
      "cumulativeGasUsed": "0x13a9fa5",
      "logs": [
        {
          "address": "0xe03a1074c86cfedd5c142c4f04f1a1536e203543",
          "topics": [
            "0xdd466e674ea557f56295e2d0218a125ea4b4f0f6f3307b95f85e6110838d6438",
            "0x2ab87534751b7fb92119e2bb20e5866bdde85d9fd6bf5f85d903002406868af0",
            "0x0000000000000000000000000003897f666b36bf31aa48beea2a57b16e60448b",
            "0x000000000000000000000000c9d872b821a6552a37f6944f66fc3e3ba55916f0"
          ],
          "data": "0x0000000000000000000000000000000000000000000000000000000000000bb8000000000000000000000000000000000000000000000000000000000000003c00000000000000000000000080b884a77cb6167b884d3419019df790e65440c000000000000000000000000000000000000000010000000000000000000000000000000000000000000000000000000000000000000000000000000000000000",
          "blockHash": "0x80531c588672addd30fa55856f45302218797615fe50e35a9c480e60605c5282",
          "blockNumber": "0x93d835",
          "blockTimestamp": "0x6922e00c",
          "transactionHash": "0x02ed73451c703cd28a97ad9ffc4592fc563ff3463622fbab3ad0af5f643ef9ba",
          "transactionIndex": "0x8f",
          "logIndex": "0x1fc",
          "removed": false
        }
      ],
      "logsBloom": "0x00000000000000000000000040000000000000000000000000000000000000000000000000000000000000000000000000000100000000000000000000000000000000000000000000000000000000000000000000000000000000000000000000000000000000000000800008000000000400000000100000000000000000100000000000000008000000000000000000040001000000000000000000200000000000000000000000000000000000000000000100000000000000000000000000000000000000000000100000000000000000000080000000000000000000001000000000000000000000000000000000000000000000000000000000000000",
      "type": "0x0",
      "transactionHash": "0x02ed73451c703cd28a97ad9ffc4592fc563ff3463622fbab3ad0af5f643ef9ba",
      "transactionIndex": "0x8f",
      "blockHash": "0x80531c588672addd30fa55856f45302218797615fe50e35a9c480e60605c5282",
      "blockNumber": "0x93d835",
      "gasUsed": "0xca0a",
      "effectiveGasPrice": "0xf4240",
      "from": "0x026ba0aa63686278c3b3b3b9c43bedd8421e36cd",
      "to": "0xe03a1074c86cfedd5c142c4f04f1a1536e203543",
      "contractAddress": null
    }
  ],
  "libraries": [],
  "pending": [],
  "returns": {},
  "timestamp": 1763893261449,
  "chain": 11155111,
  "commit": "87e9b27"
}