{
  "transactions": [
    {
      "hash": "0xc4f471752ea965d59ce1030720168abe50820a96c8acec02683c7e5a28ea6083",
      "transactionType": "CALL",
      "contractName": "PoolManager",
      "contractAddress": "0xe03a1074c86cfedd5c142c4f04f1a1536e203543",
      "function": "initialize((address,address,uint24,int24,address),uint160)",
      "arguments": [
        "(0x0003897f666B36bf31Aa48BEEA2A57B16e60448b, 0xC9D872b821A6552a37F6944F66Fc3E3BA55916F0, 3000, 60, 0x25E02663637E83E22F8bBFd556634d42227400C0)",
        "79228162514264337593543950336"
      ],
      "transaction": {
        "from": "0x026ba0aa63686278c3b3b3b9c43bedd8421e36cd",
        "to": "0xe03a1074c86cfedd5c142c4f04f1a1536e203543",
        "gas": "0x116ff",
        "value": "0x0",
        "input": "0x6276cbbe0000000000000000000000000003897f666b36bf31aa48beea2a57b16e60448b000000000000000000000000c9d872b821a6552a37f6944f66fc3e3ba55916f00000000000000000000000000000000000000000000000000000000000000bb8000000000000000000000000000000000000000000000000000000000000003c00000000000000000000000025e02663637e83e22f8bbfd556634d42227400c00000000000000000000000000000000000000001000000000000000000000000",
        "nonce": "0x218",
        "chainId": "0xaa36a7"
      },
      "additionalContracts": [],
      "isFixedGasLimit": false
    }
  ],
  "receipts": [
    {
      "status": "0x1",
      "cumulativeGasUsed": "0x109d176",
      "logs": [
        {
          "address": "0xe03a1074c86cfedd5c142c4f04f1a1536e203543",
          "topics": [
            "0xdd466e674ea557f56295e2d0218a125ea4b4f0f6f3307b95f85e6110838d6438",
            "0x977334e2e271c1fc493a1fcd4e5ab303f26b6e276b27acc10adf8377aae8370a",
            "0x0000000000000000000000000003897f666b36bf31aa48beea2a57b16e60448b",
            "0x000000000000000000000000c9d872b821a6552a37f6944f66fc3e3ba55916f0"
          ],
          "data": "0x0000000000000000000000000000000000000000000000000000000000000bb8000000000000000000000000000000000000000000000000000000000000003c00000000000000000000000025e02663637e83e22f8bbfd556634d42227400c000000000000000000000000000000000000000010000000000000000000000000000000000000000000000000000000000000000000000000000000000000000",
          "blockHash": "0x9df2ebd92044984cf3413b778182c01103bf5cf1a0b4f2282829c6285a6e8313",
          "blockNumber": "0x93d688",
          "blockTimestamp": "0x6922cb54",
          "transactionHash": "0xc4f471752ea965d59ce1030720168abe50820a96c8acec02683c7e5a28ea6083",
          "transactionIndex": "0x65",
          "logIndex": "0x21b",
          "removed": false
        }
      ],
      "logsBloom": "0x00000000000000000000000040000000000000000000000000000000000000000000000000000000000000000000000000000100000000000000000000000000000000000000000000000000000000010000000000000000000000000002000000000000000000000000000008000000000400000000100000000000000000000000000000000008000000000000000000040001000000000000000000200000000000000000000000000000000000000000000100000000000000000000000000000000000000000000000000000000000000000080000000000000000000001000000000100000000000000000000000000000000000000000000000000000",
      "type": "0x0",
      "transactionHash": "0xc4f471752ea965d59ce1030720168abe50820a96c8acec02683c7e5a28ea6083",
      "transactionIndex": "0x65",
      "blockHash": "0x9df2ebd92044984cf3413b778182c01103bf5cf1a0b4f2282829c6285a6e8313",
      "blockNumber": "0x93d688",
      "gasUsed": "0xc9fe",
      "effectiveGasPrice": "0xfa3e5",
      "from": "0x026ba0aa63686278c3b3b3b9c43bedd8421e36cd",
      "to": "0xe03a1074c86cfedd5c142c4f04f1a1536e203543",
      "contractAddress": null
    }
  ],
  "libraries": [],
  "pending": [],
  "returns": {},
  "timestamp": 1763887958365,
  "chain": 11155111,
  "commit": "9e3313c"
}