{
  "transactions": [
    {
      "hash": "0x35c48bc57dfe9d0222ed17e2003c7a262ea772117de43c916833cf6d536a906f",
      "transactionType": "CALL",
      "contractName": "PoolManager",
      "contractAddress": "0xe03a1074c86cfedd5c142c4f04f1a1536e203543",
      "function": "initialize((address,address,uint24,int24,address),uint160)",
      "arguments": [
        "(0x0003897f666B36bf31Aa48BEEA2A57B16e60448b, 0xC9D872b821A6552a37F6944F66Fc3E3BA55916F0, 3000, 60, 0xeb66B316c2B212E07FdA8BC6A77477Ac1d6940c0)",
        "79228162514264337593543950336"
      ],
      "transaction": {
        "from": "0x026ba0aa63686278c3b3b3b9c43bedd8421e36cd",
        "to": "0xe03a1074c86cfedd5c142c4f04f1a1536e203543",
        "gas": "0x1277b",
        "value": "0x0",
        "input": "0x6276cbbe0000000000000000000000000003897f666b36bf31aa48beea2a57b16e60448b000000000000000000000000c9d872b821a6552a37f6944f66fc3e3ba55916f00000000000000000000000000000000000000000000000000000000000000bb8000000000000000000000000000000000000000000000000000000000000003c000000000000000000000000eb66b316c2b212e07fda8bc6a77477ac1d6940c00000000000000000000000000000000000000001000000000000000000000000",
        "nonce": "0x1fb",
        "chainId": "0xaa36a7"
      },
      "additionalContracts": [],
      "isFixedGasLimit": false
    }
  ],
  "receipts": [
    {
      "status": "0x1",
      "cumulativeGasUsed": "0x1bad687",
      "logs": [
        {
          "address": "0xe03a1074c86cfedd5c142c4f04f1a1536e203543",
          "topics": [
            "0xdd466e674ea557f56295e2d0218a125ea4b4f0f6f3307b95f85e6110838d6438",
            "0xe5c4bcf4e202f56ec6e01d98f95a1f54e983ab4644b29f473b1dbb55b876b1ea",
            "0x0000000000000000000000000003897f666b36bf31aa48beea2a57b16e60448b",
            "0x000000000000000000000000c9d872b821a6552a37f6944f66fc3e3ba55916f0"
          ],
          "data": "0x0000000000000000000000000000000000000000000000000000000000000bb8000000000000000000000000000000000000000000000000000000000000003c000000000000000000000000eb66b316c2b212e07fda8bc6a77477ac1d6940c000000000000000000000000000000000000000010000000000000000000000000000000000000000000000000000000000000000000000000000000000000000",
          "blockHash": "0xdb15bcdc6af020b78a878549de4d75a295e7ec5261c4edda5599c78e320e09e1",
          "blockNumber": "0x93d4ff",
          "blockTimestamp": "0x6922b870",
          "transactionHash": "0x35c48bc57dfe9d0222ed17e2003c7a262ea772117de43c916833cf6d536a906f",
          "transactionIndex": "0x59",
          "logIndex": "0x14a",
          "removed": false
        }
      ],
      "logsBloom": "0x00000000000000000000000040080000400000000000000000000200000000000000000000000000000000000000000000000100000000000000000000000000000000000000000000000000000000000000000000000000000000000000000000000000000000000000000008000000000400000000100000000000000000000000000000000008000000000000000000040001000000000000000000200000000000000000000000000000000000000000000100000000000000000000000000000000000000000000000000000000000000000080000000000000000000001000000000000000000000000000000000000000000000000000000000000000",
      "type": "0x0",
      "transactionHash": "0x35c48bc57dfe9d0222ed17e2003c7a262ea772117de43c916833cf6d536a906f",
      "transactionIndex": "0x59",
      "blockHash": "0xdb15bcdc6af020b78a878549de4d75a295e7ec5261c4edda5599c78e320e09e1",
      "blockNumber": "0x93d4ff",
      "gasUsed": "0xca0a",
      "effectiveGasPrice": "0xfa3e5",
      "from": "0x026ba0aa63686278c3b3b3b9c43bedd8421e36cd",
      "to": "0xe03a1074c86cfedd5c142c4f04f1a1536e203543",
      "contractAddress": null
    }
  ],
  "libraries": [],
  "pending": [],
  "returns": {},
  "timestamp": 1763883121756,
  "chain": 11155111,
  "commit": "9e3313c"
}